:100000000C9434000C9446000C9446000C9446006A
:100010000C9446000C9446000C9446000C94460048
:100020000C9446000C9446000C9446000C94460038
:100030000C9446000C9446000C9446000C94460028
:100040000C9446000C9446000C9446000C94460018
:100050000C9446000C9446000C9446000C94460008
:100060000C94DC010C94460011241FBECFEFD8E0A5
:10007000DEBFCDBF21E0A0E0B1E001C01D92A532FE
:10008000B207E1F70E94F8020C9416030C940000EA
:1000900080E00E94B50161E080E10E94C30121E09F
:1000A00030E0019611F030E020E088279927821B8C
:1000B000930B0895CF93DF9300D0CDB7DEB789833C
:1000C0006A8388EB90E02981FC0120838A81882F54
:1000D00090E084309105C9F0853091051CF40197BA
:1000E00041F049C08031910529F180349105B9F181
:1000F00042C089EB90E0FC01208189EB90E02C7FED
:10010000FC01208380E090E038C089EB90E0FC01A6
:10011000208189EB90E02D7FFC01208389EB90E02A
:10012000FC01208189EB90E02160FC01208380E0CC
:1001300090E023C089EB90E0FC01208189EB90E006
:100140002260FC01208389EB90E0FC01208189EB97
:1001500090E02E7FFC01208380E090E00EC089EBD0
:1001600090E0FC01208189EB90E02360FC0120837A
:1001700080E090E002C08FEF9FEF0F900F90DF9133
:10018000CF910895CF93DF9300D0CDB7DEB78983A9
:100190006A838981882F90E0880F991F282F21601A
:1001A0008AEB90E0FC01208380E090E00F900F90BC
:1001B000DF91CF910895CF93DF93CDB7DEB78CEB6E
:1001C00090E025EAFC01208380E090E0DF91CF9170
:1001D0000895CF93DF93CDB7DEB78CEB90E025E9A0
:1001E000FC01208380E090E0DF91CF910895CF93D0
:1001F000DF930F92CDB7DEB789838BEB90E0298137
:10020000FC0120838CEB90E025ECFC01208380E056
:1002100090E00F90DF91CF910895CF93DF93CDB70A
:10022000DEB78CEB90E025ECFC01208380E090E0D1
:10023000DF91CF910895CF93DF93CDB7DEB78CEBED
:1002400090E0FC0120818CEB90E02E7FFC0120836C
:1002500080E090E0DF91CF910895CF93DF9300D0BD
:10026000CDB7DEB79A8389838BEB90E0FC012081C8
:1002700089819A81FC0120838CEB90E025ECFC01C4
:10028000208380E090E00F900F90DF91CF91089550
:10029000CF93DF9300D0CDB7DEB79A8389838BEB02
:1002A00090E0FC01208189819A81FC0120838CEB04
:1002B00090E025E8FC01208380E090E00F900F9013
:1002C000DF91CF910895CF93DF9300D0CDB7DEB704
:1002D0009A83898389819A81909301018093000197
:1002E00000000F900F90DF91CF910895CF93DF938F
:1002F00000D000D00F92CDB7DEB79C838B836D8387
:100300000E941B018D818F3118F08FEF9FEF25C068
:100310008D81882F90E0909323018093220182E0C9
:1003200091E09A83898311C02B813C81C901019698
:100330009C838B8389819A81AC014F5F5F4F5A8385
:100340004983F9012081FC0120838D819FEF980F63
:100350009D83882349F780E090E00F900F900F90E5
:100360000F900F90DF91CF910895CF93DF930F926D
:10037000CDB7DEB7898389818093240100000F9077
:10038000DF91CF910895CF93DF9300D0CDB7DEB743
:1003900089836A836A8189810E94C200019619F467
:1003A0008FEF9FEF04C00E940D0180E090E00F905E
:1003B0000F90DF91CF9108951F920F920FB60F9279
:1003C00011242F933F934F935F936F937F938F935A
:1003D0009F93AF93BF93EF93FF93CF93DF93CDB7EB
:1003E000DEB789EB90E0FC018081882F90E08039B6
:1003F000910509F44EC081399105DCF480379105EF
:10040000C9F18137910554F48036910599F1883608
:10041000910581F1892B09F4D3C0D6C080389105AC
:10042000C1F18838910509F460C08837910511F150
:10043000CBC0803B910509F45BC0813B91056CF416
:10044000803A910509F4A2C0883A910509F450C098
:100450008839910509F449C0B7C0803C910509F479
:10046000AFC0883C910509F4ABC0883B910509F405
:100470005FC0AAC01092240182E091E09093210114
:100480008093200110922301109222010E940D01FD
:100490009BC080912001909121018F51914070F477
:1004A00080912001909121019C012F5F3F4F30935B
:1004B0002101209320010E942D010DC08091200177
:1004C000909121018F51914031F4809120019091C0
:1004D00021010E94480180912201909123010196FF
:1004E00090932301809322016FC00E940D016CC084
:1004F00081E08093240182E091E090932101809338
:1005000020018091220190912301892B09F45BC085
:1005100080912001909121019C012F5F3F4F3093EA
:10052000210120932001FC0180810E94F7004BC033
:1005300080912001909121018F51914009F080F428
:1005400080912001909121019C012F5F3F4F3093BA
:10055000210120932001FC0180810E94F70034C01A
:1005600082E091E09093210180932001809120010D
:10057000909121019C012F5F3F4F309321012093E7
:100580002001FC0180810E94F7001EC0809124019F
:10059000882399F48091000190910101892B69F0E1
:1005A000209100013091010180912201909123015D
:1005B000682F82E091E0F90109950E940D0104C0C5
:1005C0000E940D0101C000000000DF91CF91FF915A
:1005D000EF91BF91AF919F918F917F916F915F91BB
:1005E0004F913F912F910F900FBE0F901F90189534
:1005F0000E9448000196B9F07894259A2D9A8FEFC1
:1006000094E32CE0815090402040E1F700C00000CE
:100610002D988FEF94E32CE0815090402040E1F73B
:1006200000C00000EBCF8FEF9FEF0895F894FFCF4D
:00000001FF
