:100000000C9434000C9449000C9449000C94490061
:100010000C9449000C9449000C9449000C9449003C
:100020000C9449000C9449000C9449000C9449002C
:100030000C9449000C9449000C9449000C9449001C
:100040000C9449000C9449000C9449000C9449000C
:100050000C9449000C9449000C9449000C944900FC
:100060000C9449000C94490011241FBECFEFD8E036
:10007000DEBFCDBF11E0A0E0B1E0E0EFF5E002C0EF
:1000800005900D92A231B107D9F70E94CA020C94D3
:10009000F6020C940000CF93DF9300D0CDB7DEB70B
:1000A00089836A8388EB90E02981FC0120838A811F
:1000B000882F90E084309105C9F0853091051CF4BB
:1000C000019741F049C08031910529F180349105B3
:1000D000B9F142C089EB90E0FC01208189EB90E00E
:1000E0002C7FFC01208380E090E038C089EB90E019
:1000F000FC01208189EB90E02D7FFC01208389EBBE
:1001000090E0FC01208189EB90E02160FC012083DC
:1001100080E090E023C089EB90E0FC01208189EB36
:1001200090E02260FC01208389EB90E0FC012081BB
:1001300089EB90E02E7FFC01208380E090E00EC0F0
:1001400089EB90E0FC01208189EB90E02360FC01C9
:10015000208380E090E002C08FEF9FEF0F900F9020
:10016000DF91CF910895CF93DF9300D0CDB7DEB765
:1001700089836A838981882F90E0880F991F282FAF
:1001800021608AEB90E0FC01208380E090E00F90FA
:100190000F90DF91CF910895CF93DF93CDB7DEB766
:1001A0008CEB90E025EAFC01208380E090E0DF9179
:1001B000CF910895CF93DF93CDB7DEB78CEB90E06E
:1001C00025E9FC01208380E090E0DF91CF91089544
:1001D000CF93DF930F92CDB7DEB789838BEB90E09F
:1001E0002981FC0120838CEB90E025ECFC0120832D
:1001F00080E090E00F90DF91CF910895CF93DF934F
:10020000CDB7DEB78CEB90E025ECFC01208380E0DD
:1002100090E0DF91CF910895CF93DF93CDB7DEB714
:100220008CEB90E0FC0120818CEB90E02E7FFC01B8
:10023000208380E090E0DF91CF910895CF93DF930A
:1002400000D0CDB7DEB79A8389838BEB90E0FC01B9
:10025000208189819A81FC0120838CEB90E025EC40
:10026000FC01208380E090E00F900F90DF91CF9110
:100270000895CF93DF9300D0CDB7DEB79A838983FB
:100280008BEB90E0FC01208189819A81FC01208325
:100290008CEB90E025E8FC01208380E090E00F905B
:1002A0000F90DF91CF910895CF93DF9300D0CDB71A
:1002B000DEB789836A8388EB90E02981FC01208383
:1002C0008A81082E000C990B84309105B9F0853095
:1002D00091051CF4019741F041C08031910509F16D
:1002E0008034910589F13AC089EB90E0FC012081CE
:1002F00089EB90E02C7FFC01208330C089EB90E0FB
:10030000FC01208189EB90E02160FC01208389EBD6
:1003100090E0FC01208189EB90E02D7FFC0120839F
:100320001DC089EB90E0FC01208189EB90E02E7FDD
:10033000FC01208389EB90E0FC01208189EB90E0B7
:100340002260FC0120830AC089EB90E0FC0120813F
:1003500089EB90E02360FC012083000000000F90F7
:100360000F90DF91CF910895CF93DF93CDB7DEB794
:100370000E94CC0000008CEB90E0FC01808188237F
:10038000D4F789EB90E0FC018081882F90E0887F92
:100390009927089719F08FEF9FEF02C080E090E057
:1003A000DF91CF910895CF93DF93CDB7DEB70E9451
:1003B000DA0000008CEB90E0FC0180818823D4F708
:1003C00080E090E0DF91CF910895CF93DF9300D04C
:1003D000CDB7DEB789836A838981882F90E0880F43
:1003E000991F982F8A81892B0E94E80000008CEBCE
:1003F00090E0FC0180818823D4F789EB90E0FC0138
:100400008081882F90E0887F9927489759F089EB61
:1004100090E0FC018081882F90E0887F99278034CC
:10042000910519F480E090E002C081E090E00F9027
:100430000F90DF91CF910895CF93DF9300D0CDB788
:10044000DEB78A838A810E94E80000008CEB90E08E
:10045000FC0180818823D4F789EB90E0FC01808146
:10046000887F89838981883219F481E090E008C00F
:100470008981803319F480E090E002C08FEF9FEF14
:100480000F900F90DF91CF910895CF93DF9300D01D
:1004900000D00F92CDB7DEB79C838B836D8314C0E1
:1004A0008B819C819C012F5F3F4F3C832B83FC0100
:1004B00080810E941C029A83898389819A81019795
:1004C00039F48D8181508D838D8118164CF301C0D4
:1004D000000089819A810F900F900F900F900F90DC
:1004E000DF91CF910895CF93DF9300D00F92CDB7D6
:1004F000DEB79A8389836B8322C089819A819C01AC
:100500002F5F3F4F3A8329830E941E0100008CEB2E
:1005100090E0FC0180818823D4F789EB90E0FC0116
:100520008081882F90E0887F99278035910521F47C
:100530008B8181508B8303C08FEF9FEF25C08B8110
:100540008230DCF68B818130E9F489819A810E94C6
:10055000390100008CEB90E0FC0180818823D4F706
:1005600089EB90E0FC018081882F90E0887F9927BB
:100570008835910521F48B8181508B8303C08FEFE7
:100580009FEF02C080E090E00F900F900F90DF91FE
:10059000CF910895259A61E080E20E9454010E9463
:1005A000B401892B01F560E080E10E94E5012D9AFC
:1005B0002FEF84E39CE0215080409040E1F700C0A1
:1005C00000002D982FEF84E39CE021508040904064
:1005D000E1F700C0000062E180E091E00E94450286
:1005E0000E94B401E0CF8FEF9FEF0895F894FFCF02
:1005F00057686174277320676F696E67206F6E3F5D
:020600000A00EE
:00000001FF
